{"abi":[{"type":"constructor","inputs":[{"name":"_owner","type":"address","internalType":"address"},{"name":"_scopeToken","type":"address","internalType":"address"}],"stateMutability":"nonpayable"},{"type":"function","name":"acceptDeal","inputs":[{"name":"id","type":"uint256","internalType":"uint256"}],"outputs":[],"stateMutability":"nonpayable"},{"type":"function","name":"cancelDeal","inputs":[{"name":"id","type":"uint256","internalType":"uint256"}],"outputs":[],"stateMutability":"nonpayable"},{"type":"function","name":"confirmMilestone","inputs":[{"name":"id","type":"uint256","internalType":"uint256"},{"name":"idx","type":"uint256","internalType":"uint256"}],"outputs":[],"stateMutability":"nonpayable"},{"type":"function","name":"createDeal","inputs":[{"name":"counterparty","type":"address","internalType":"address"},{"name":"termsHash","type":"bytes32","internalType":"bytes32"},{"name":"milestoneCount","type":"uint256","internalType":"uint256"},{"name":"deadline","type":"uint256","internalType":"uint256"}],"outputs":[{"name":"","type":"uint256","internalType":"uint256"}],"stateMutability":"payable"},{"type":"function","name":"dealCount","inputs":[],"outputs":[{"name":"","type":"uint256","internalType":"uint256"}],"stateMutability":"view"},{"type":"function","name":"deals","inputs":[{"name":"","type":"uint256","internalType":"uint256"}],"outputs":[{"name":"initiator","type":"address","internalType":"address"},{"name":"counterparty","type":"address","internalType":"address"},{"name":"amount","type":"uint256","internalType":"uint256"},{"name":"termsHash","type":"bytes32","internalType":"bytes32"},{"name":"deadline","type":"uint256","internalType":"uint256"},{"name":"status","type":"uint8","internalType":"enum DealEngine.Status"},{"name":"milestoneCount","type":"uint256","internalType":"uint256"},{"name":"milestonesCompleted","type":"uint256","internalType":"uint256"},{"name":"createdAt","type":"uint256","internalType":"uint256"}],"stateMutability":"view"},{"type":"function","name":"disputeDeal","inputs":[{"name":"id","type":"uint256","internalType":"uint256"}],"outputs":[],"stateMutability":"nonpayable"},{"type":"function","name":"expireDeal","inputs":[{"name":"id","type":"uint256","internalType":"uint256"}],"outputs":[],"stateMutability":"nonpayable"},{"type":"function","name":"getDeal","inputs":[{"name":"id","type":"uint256","internalType":"uint256"}],"outputs":[{"name":"","type":"tuple","internalType":"struct DealEngine.Deal","components":[{"name":"initiator","type":"address","internalType":"address"},{"name":"counterparty","type":"address","internalType":"address"},{"name":"amount","type":"uint256","internalType":"uint256"},{"name":"termsHash","type":"bytes32","internalType":"bytes32"},{"name":"deadline","type":"uint256","internalType":"uint256"},{"name":"status","type":"uint8","internalType":"enum DealEngine.Status"},{"name":"milestoneCount","type":"uint256","internalType":"uint256"},{"name":"milestonesCompleted","type":"uint256","internalType":"uint256"},{"name":"createdAt","type":"uint256","internalType":"uint256"}]}],"stateMutability":"view"},{"type":"function","name":"getMilestone","inputs":[{"name":"id","type":"uint256","internalType":"uint256"},{"name":"idx","type":"uint256","internalType":"uint256"}],"outputs":[{"name":"","type":"tuple","internalType":"struct DealEngine.Milestone","components":[{"name":"evidenceHash","type":"bytes32","internalType":"bytes32"},{"name":"submitted","type":"bool","internalType":"bool"},{"name":"confirmed","type":"bool","internalType":"bool"}]}],"stateMutability":"view"},{"type":"function","name":"milestones","inputs":[{"name":"","type":"uint256","internalType":"uint256"},{"name":"","type":"uint256","internalType":"uint256"}],"outputs":[{"name":"evidenceHash","type":"bytes32","internalType":"bytes32"},{"name":"submitted","type":"bool","internalType":"bool"},{"name":"confirmed","type":"bool","internalType":"bool"}],"stateMutability":"view"},{"type":"function","name":"owner","inputs":[],"outputs":[{"name":"","type":"address","internalType":"address"}],"stateMutability":"view"},{"type":"function","name":"scopeToken","inputs":[],"outputs":[{"name":"","type":"address","internalType":"contract ScopeToken"}],"stateMutability":"view"},{"type":"function","name":"submitMilestone","inputs":[{"name":"id","type":"uint256","internalType":"uint256"},{"name":"idx","type":"uint256","internalType":"uint256"},{"name":"evidence","type":"bytes32","internalType":"bytes32"}],"outputs":[],"stateMutability":"nonpayable"},{"type":"event","name":"DealAccepted","inputs":[{"name":"id","type":"uint256","indexed":true,"internalType":"uint256"}],"anonymous":false},{"type":"event","name":"DealCancelled","inputs":[{"name":"id","type":"uint256","indexed":true,"internalType":"uint256"}],"anonymous":false},{"type":"event","name":"DealCompleted","inputs":[{"name":"id","type":"uint256","indexed":true,"internalType":"uint256"}],"anonymous":false},{"type":"event","name":"DealCreated","inputs":[{"name":"id","type":"uint256","indexed":true,"internalType":"uint256"},{"name":"initiator","type":"address","indexed":true,"internalType":"address"},{"name":"counterparty","type":"address","indexed":true,"internalType":"address"},{"name":"amount","type":"uint256","indexed":false,"internalType":"uint256"}],"anonymous":false},{"type":"event","name":"DealDisputed","inputs":[{"name":"id","type":"uint256","indexed":true,"internalType":"uint256"},{"name":"by","type":"address","indexed":true,"internalType":"address"}],"anonymous":false},{"type":"event","name":"DealExpired","inputs":[{"name":"id","type":"uint256","indexed":true,"internalType":"uint256"},{"name":"refund","type":"uint256","indexed":false,"internalType":"uint256"}],"anonymous":false},{"type":"event","name":"MilestoneConfirmed","inputs":[{"name":"id","type":"uint256","indexed":true,"internalType":"uint256"},{"name":"milestone","type":"uint256","indexed":false,"internalType":"uint256"},{"name":"payout","type":"uint256","indexed":false,"internalType":"uint256"}],"anonymous":false},{"type":"event","name":"MilestoneSubmitted","inputs":[{"name":"id","type":"uint256","indexed":true,"internalType":"uint256"},{"name":"milestone","type":"uint256","indexed":false,"internalType":"uint256"}],"anonymous":false}],"bytecode":{"object":"0x608060405234801561000f575f80fd5b5060405162001707380380620017078339810160408190526100309161007b565b5f80546001600160a01b039384166001600160a01b031991821617909155600180549290931691161790556100ac565b80516001600160a01b0381168114610076575f80fd5b919050565b5f806040838503121561008c575f80fd5b61009583610060565b91506100a360208401610060565b90509250929050565b61164d80620000ba5f395ff3fe6080604052600436106100d9575f3560e01c80638ed9895c1161007c578063ea3d0b0011610057578063ea3d0b001461031a578063eadb3c9c14610339578063ef0cedc01461035c578063fc8edb521461036f575f80fd5b80638ed9895c14610297578063a85a8f16146102dc578063b0e36b8f146102fb575f80fd5b80636736044d116100b75780636736044d146101f75780637d41702e1461021657806382fd5bac146102355780638da5cb5b14610261575f80fd5b806303988f84146100dd5780631c376c631461017057806331ea1a39146101d6575b5f80fd5b3480156100e8575f80fd5b506101526100f73660046113a0565b600360208190525f91825260409091208054600182015460028301549383015460048401546005850154600686015460078701546008909701546001600160a01b039687169896909516969394929360ff9092169290919089565b604051610167999897969594939291906113eb565b60405180910390f35b34801561017b575f80fd5b506101b961018a366004611447565b600460209081525f92835260408084209091529082529020805460019091015460ff8082169161010090041683565b604080519384529115156020840152151590820152606001610167565b3480156101e1575f80fd5b506101f56101f03660046113a0565b61038e565b005b348015610202575f80fd5b506101f5610211366004611467565b6105a7565b348015610221575f80fd5b506101f56102303660046113a0565b61074f565b348015610240575f80fd5b5061025461024f3660046113a0565b610857565b6040516101679190611490565b34801561026c575f80fd5b505f5461027f906001600160a01b031681565b6040516001600160a01b039091168152602001610167565b3480156102a2575f80fd5b506102b66102b1366004611447565b610953565b604080518251815260208084015115159082015291810151151590820152606001610167565b3480156102e7575f80fd5b5060015461027f906001600160a01b031681565b348015610306575f80fd5b506101f5610315366004611447565b6109b7565b348015610325575f80fd5b506101f56103343660046113a0565b610caf565b348015610344575f80fd5b5061034e60025481565b604051908152602001610167565b61034e61036a366004611509565b610f2c565b34801561037a575f80fd5b506101f56103893660046113a0565b6112b4565b5f81815260036020526040902080546001600160a01b031633146103f55760405162461bcd60e51b81526020600482015260196024820152782232b0b622b733b4b7329d103737ba1034b734ba34b0ba37b960391b60448201526064015b60405180910390fd5b5f60058083015460ff169081111561040f5761040f6113b7565b1461045c5760405162461bcd60e51b815260206004820152601960248201527f4465616c456e67696e653a2063616e6e6f742063616e63656c0000000000000060448201526064016103ec565b6005818101805460ff191690911790556001546001600160a01b0316156104d957600154815460405163ec8e6d8760e01b81526001600160a01b03918216600482015291169063ec8e6d87906024015f604051808303815f87803b1580156104c2575f80fd5b505af11580156104d4573d5f803e3d5ffd5b505050505b805460028201546040515f926001600160a01b031691908381818185875af1925050503d805f8114610526576040519150601f19603f3d011682016040523d82523d5f602084013e61052b565b606091505b50509050806105785760405162461bcd60e51b81526020600482015260196024820152781119585b115b99da5b994e881c99599d5b990819985a5b1959603a1b60448201526064016103ec565b60405183907f31b0c01e8429f81903c3f8adc204767b8efa7cfca91a00f3b4bb40ce63c8a206905f90a2505050565b5f83815260036020526040902060018101546001600160a01b031633146106105760405162461bcd60e51b815260206004820152601c60248201527f4465616c456e67696e653a206e6f7420636f756e74657270617274790000000060448201526064016103ec565b600160058083015460ff169081111561062b5761062b6113b7565b146106485760405162461bcd60e51b81526004016103ec9061154c565b806006015483106106935760405162461bcd60e51b8152602060048201526015602482015274088cac2d88adcced2dcca7440c4c2c840d2dcc8caf605b1b60448201526064016103ec565b5f8481526004602090815260408083208684529091529020600181015460ff16156107005760405162461bcd60e51b815260206004820152601d60248201527f4465616c456e67696e653a20616c7265616479207375626d697474656400000060448201526064016103ec565b8281556001808201805460ff1916909117905560405184815285907f26cf581e2709e0615164af15a371b2dd10fb48d5baed91e9eacd557633c16bcb9060200160405180910390a25050505050565b5f81815260036020526040902060018101546001600160a01b031633146107b85760405162461bcd60e51b815260206004820152601c60248201527f4465616c456e67696e653a206e6f7420636f756e74657270617274790000000060448201526064016103ec565b5f60058083015460ff16908111156107d2576107d26113b7565b1461081a5760405162461bcd60e51b81526020600482015260186024820152774465616c456e67696e653a2077726f6e672073746174757360401b60448201526064016103ec565b60058101805460ff1916600117905560405182907fe49dad38e0b7e2f30afda075ff23f9b00e33b1ab6754cf232fc9bb50c23b8bd1905f90a25050565b6108a260408051610120810182525f8082526020820181905291810182905260608101829052608081018290529060a082019081526020015f81526020015f81526020015f81525090565b5f8281526003602081815260409283902083516101208101855281546001600160a01b039081168252600183015416928101929092526002810154938201939093529082015460608201526004820154608082015260058083015491929160a084019160ff9091169081111561091a5761091a6113b7565b600581111561092b5761092b6113b7565b8152600682015460208201526007820154604082015260089091015460609091015292915050565b60408051606080820183525f808352602080840182905292840181905285815260048352838120858252835283902083519182018452805482526001015460ff80821615159383019390935261010090049091161515918101919091525b92915050565b5f82815260036020526040902080546001600160a01b03163314610a195760405162461bcd60e51b81526020600482015260196024820152782232b0b622b733b4b7329d103737ba1034b734ba34b0ba37b960391b60448201526064016103ec565b600160058083015460ff1690811115610a3457610a346113b7565b14610a515760405162461bcd60e51b81526004016103ec9061154c565b5f8381526004602090815260408083208584529091529020600181015460ff168015610a8757506001810154610100900460ff16155b610ad35760405162461bcd60e51b815260206004820152601960248201527f4465616c456e67696e653a20696e76616c69642073746174650000000000000060448201526064016103ec565b60018101805461ff001916610100179055600782018054905f610af583611590565b91905055505f82600601548360020154610b0f91906115a8565b60018401546040519192505f916001600160a01b039091169083908381818185875af1925050503d805f8114610b60576040519150601f19603f3d011682016040523d82523d5f602084013e610b65565b606091505b5050905080610bb65760405162461bcd60e51b815260206004820152601960248201527f4465616c456e67696e653a207061796f7574206661696c65640000000000000060448201526064016103ec565b604080518681526020810184905287917f586353fe0bfe5314fafe1c8662b942c97ddeaccfbd9a2e13fec40bcf15e8abcb910160405180910390a28360060154846007015403610ca75760058401805460ff191660021790556001546001600160a01b031615610c7c57600154845460405163ec8e6d8760e01b81526001600160a01b03918216600482015291169063ec8e6d87906024015f604051808303815f87803b158015610c65575f80fd5b505af1158015610c77573d5f803e3d5ffd5b505050505b60405186907fe70f0403e69c896bbcf61b8ca0224ab04d6de1ade440bc896049efe6fe4e0731905f90a25b505050505050565b5f81815260036020526040902060048101544211610d0f5760405162461bcd60e51b815260206004820152601760248201527f4465616c456e67696e653a206e6f74206578706972656400000000000000000060448201526064016103ec565b5f60058083015460ff1690811115610d2957610d296113b7565b1480610d4d5750600160058083015460ff1690811115610d4b57610d4b6113b7565b145b610d945760405162461bcd60e51b81526020600482015260186024820152774465616c456e67696e653a2077726f6e672073746174757360401b60448201526064016103ec565b60058101805460ff191660041790556001546001600160a01b031615610e1057600154815460405163ec8e6d8760e01b81526001600160a01b03918216600482015291169063ec8e6d87906024015f604051808303815f87803b158015610df9575f80fd5b505af1158015610e0b573d5f803e3d5ffd5b505050505b5f816007015482600601548360020154610e2a91906115a8565b610e3491906115c7565b90505f818360020154610e4791906115de565b90508015610eec5782546040515f916001600160a01b03169083908381818185875af1925050503d805f8114610e98576040519150601f19603f3d011682016040523d82523d5f602084013e610e9d565b606091505b5050905080610eea5760405162461bcd60e51b81526020600482015260196024820152781119585b115b99da5b994e881c99599d5b990819985a5b1959603a1b60448201526064016103ec565b505b837fa9ab79143f99118aaa00eb42b4c7426bc21888bd7e06b4ad70f01fe99bb47bee82604051610f1e91815260200190565b60405180910390a250505050565b5f803411610f735760405162461bcd60e51b81526020600482015260146024820152734465616c456e67696e653a206e6f2076616c756560601b60448201526064016103ec565b5f83118015610f835750600a8311155b610fcf5760405162461bcd60e51b815260206004820152601a60248201527f4465616c456e67696e653a20626164206d696c6573746f6e657300000000000060448201526064016103ec565b42821161101e5760405162461bcd60e51b815260206004820152601960248201527f4465616c456e67696e653a207061737420646561646c696e650000000000000060448201526064016103ec565b6001546001600160a01b031615611144576001546040516305a4700760e41b81523360048201523460248201526001600160a01b0390911690635a47007090604401602060405180830381865afa15801561107b573d5f803e3d5ffd5b505050506040513d601f19601f8201168201806040525081019061109f91906115f1565b6110eb5760405162461bcd60e51b815260206004820152601f60248201527f4465616c456e67696e653a206465616c2073636f70652065786365656465640060448201526064016103ec565b6001546040516310cc5c8360e31b81523360048201526001600160a01b0390911690638662e418906024015f604051808303815f87803b15801561112d575f80fd5b505af115801561113f573d5f803e3d5ffd5b505050505b600280545f918261115483611590565b919050559050604051806101200160405280336001600160a01b03168152602001876001600160a01b031681526020013481526020018681526020018481526020015f60058111156111a8576111a86113b7565b815260208082018790525f604080840182905242606094850152858252600380845291819020855181546001600160a01b039182166001600160a01b03199182161783559487015160018084018054929093169190961617905590850151600282015592840151908301556080830151600483015560a0830151600580840180549293909260ff1916918490811115611243576112436113b7565b021790555060c0820151600682015560e08201516007820155610100909101516008909101556040513481526001600160a01b03871690339083907fa1d51600bc538356bf8fd92c062edd8551d8ebffa6933a434365fbb0b2b6eb489060200160405180910390a495945050505050565b5f81815260036020526040902080546001600160a01b03163314806112e5575060018101546001600160a01b031633145b6113295760405162461bcd60e51b81526020600482015260156024820152744465616c456e67696e653a206e6f7420706172747960581b60448201526064016103ec565b600160058083015460ff1690811115611344576113446113b7565b146113615760405162461bcd60e51b81526004016103ec9061154c565b60058101805460ff19166003179055604051339083907fa68d56a81a9be734bdfa17f0fb210239cdc6cac8f3bcb9d5c09841fcab4b1d8a905f90a35050565b5f602082840312156113b0575f80fd5b5035919050565b634e487b7160e01b5f52602160045260245ffd5b600681106113e757634e487b7160e01b5f52602160045260245ffd5b9052565b6001600160a01b038a8116825289166020820152604081018890526060810187905260808101869052610120810161142660a08301876113cb565b8460c08301528360e0830152826101008301529a9950505050505050505050565b5f8060408385031215611458575f80fd5b50508035926020909101359150565b5f805f60608486031215611479575f80fd5b505081359360208301359350604090920135919050565b5f6101208201905060018060a01b038084511683528060208501511660208401525060408301516040830152606083015160608301526080830151608083015260a08301516114e260a08401826113cb565b5060c083015160c083015260e083015160e083015261010080840151818401525092915050565b5f805f806080858703121561151c575f80fd5b84356001600160a01b0381168114611532575f80fd5b966020860135965060408601359560600135945092505050565b6020808252601690820152754465616c456e67696e653a206e6f742061637469766560501b604082015260600190565b634e487b7160e01b5f52601160045260245ffd5b5f600182016115a1576115a161157c565b5060010190565b5f826115c257634e487b7160e01b5f52601260045260245ffd5b500490565b80820281158282048414176109b1576109b161157c565b818103818111156109b1576109b161157c565b5f60208284031215611601575f80fd5b81518015158114611610575f80fd5b939250505056fea2646970667358221220a6d14848a8e806be8b3bb390b0261a8ce65bc65f8612bb2a55ec9016bb96fe9764736f6c63430008180033","linkReferences":{}},"methodIdentifiers":{"acceptDeal(uint256)":"7d41702e","cancelDeal(uint256)":"31ea1a39","confirmMilestone(uint256,uint256)":"b0e36b8f","createDeal(address,bytes32,uint256,uint256)":"ef0cedc0","dealCount()":"eadb3c9c","deals(uint256)":"03988f84","disputeDeal(uint256)":"fc8edb52","expireDeal(uint256)":"ea3d0b00","getDeal(uint256)":"82fd5bac","getMilestone(uint256,uint256)":"8ed9895c","milestones(uint256,uint256)":"1c376c63","owner()":"8da5cb5b","scopeToken()":"a85a8f16","submitMilestone(uint256,uint256,bytes32)":"6736044d"},"id":20}