{"abi":[{"type":"constructor","inputs":[{"name":"_owner","type":"address","internalType":"address"},{"name":"_scopeToken","type":"address","internalType":"address"}],"stateMutability":"nonpayable"},{"type":"receive","stateMutability":"payable"},{"type":"function","name":"agentReceipts","inputs":[{"name":"","type":"address","internalType":"address"},{"name":"","type":"uint256","internalType":"uint256"}],"outputs":[{"name":"","type":"uint256","internalType":"uint256"}],"stateMutability":"view"},{"type":"function","name":"getAgentReceiptCount","inputs":[{"name":"agent","type":"address","internalType":"address"}],"outputs":[{"name":"","type":"uint256","internalType":"uint256"}],"stateMutability":"view"},{"type":"function","name":"getAgentReceipts","inputs":[{"name":"agent","type":"address","internalType":"address"},{"name":"offset","type":"uint256","internalType":"uint256"},{"name":"limit","type":"uint256","internalType":"uint256"}],"outputs":[{"name":"","type":"tuple[]","internalType":"struct AgentScope.ActionReceipt[]","components":[{"name":"agent","type":"address","internalType":"address"},{"name":"target","type":"address","internalType":"address"},{"name":"value","type":"uint256","internalType":"uint256"},{"name":"selector","type":"bytes4","internalType":"bytes4"},{"name":"timestamp","type":"uint256","internalType":"uint256"},{"name":"blockNumber","type":"uint256","internalType":"uint256"},{"name":"success","type":"bool","internalType":"bool"}]}],"stateMutability":"view"},{"type":"function","name":"getReceipt","inputs":[{"name":"id","type":"uint256","internalType":"uint256"}],"outputs":[{"name":"","type":"tuple","internalType":"struct AgentScope.ActionReceipt","components":[{"name":"agent","type":"address","internalType":"address"},{"name":"target","type":"address","internalType":"address"},{"name":"value","type":"uint256","internalType":"uint256"},{"name":"selector","type":"bytes4","internalType":"bytes4"},{"name":"timestamp","type":"uint256","internalType":"uint256"},{"name":"blockNumber","type":"uint256","internalType":"uint256"},{"name":"success","type":"bool","internalType":"bool"}]}],"stateMutability":"view"},{"type":"function","name":"interact","inputs":[{"name":"target","type":"address","internalType":"address"},{"name":"value","type":"uint256","internalType":"uint256"},{"name":"data","type":"bytes","internalType":"bytes"}],"outputs":[],"stateMutability":"nonpayable"},{"type":"function","name":"owner","inputs":[],"outputs":[{"name":"","type":"address","internalType":"address"}],"stateMutability":"view"},{"type":"function","name":"receipts","inputs":[{"name":"","type":"uint256","internalType":"uint256"}],"outputs":[{"name":"agent","type":"address","internalType":"address"},{"name":"target","type":"address","internalType":"address"},{"name":"value","type":"uint256","internalType":"uint256"},{"name":"selector","type":"bytes4","internalType":"bytes4"},{"name":"timestamp","type":"uint256","internalType":"uint256"},{"name":"blockNumber","type":"uint256","internalType":"uint256"},{"name":"success","type":"bool","internalType":"bool"}],"stateMutability":"view"},{"type":"function","name":"registerAgent","inputs":[{"name":"agent","type":"address","internalType":"address"},{"name":"name","type":"string","internalType":"string"}],"outputs":[],"stateMutability":"nonpayable"},{"type":"function","name":"registeredAgents","inputs":[{"name":"","type":"address","internalType":"address"}],"outputs":[{"name":"","type":"bool","internalType":"bool"}],"stateMutability":"view"},{"type":"function","name":"removeAgent","inputs":[{"name":"agent","type":"address","internalType":"address"}],"outputs":[],"stateMutability":"nonpayable"},{"type":"function","name":"scopeToken","inputs":[],"outputs":[{"name":"","type":"address","internalType":"contract ScopeToken"}],"stateMutability":"view"},{"type":"function","name":"spend","inputs":[{"name":"to","type":"address","internalType":"address"},{"name":"value","type":"uint256","internalType":"uint256"}],"outputs":[],"stateMutability":"nonpayable"},{"type":"function","name":"totalReceipts","inputs":[],"outputs":[{"name":"","type":"uint256","internalType":"uint256"}],"stateMutability":"view"},{"type":"function","name":"transferOwnership","inputs":[{"name":"newOwner","type":"address","internalType":"address"}],"outputs":[],"stateMutability":"nonpayable"},{"type":"function","name":"withdraw","inputs":[{"name":"to","type":"address","internalType":"address"},{"name":"amount","type":"uint256","internalType":"uint256"}],"outputs":[],"stateMutability":"nonpayable"},{"type":"event","name":"ActionExecuted","inputs":[{"name":"receiptId","type":"uint256","indexed":true,"internalType":"uint256"},{"name":"agent","type":"address","indexed":true,"internalType":"address"},{"name":"target","type":"address","indexed":true,"internalType":"address"},{"name":"value","type":"uint256","indexed":false,"internalType":"uint256"},{"name":"success","type":"bool","indexed":false,"internalType":"bool"}],"anonymous":false},{"type":"event","name":"AgentRegistered","inputs":[{"name":"agent","type":"address","indexed":true,"internalType":"address"},{"name":"name","type":"string","indexed":false,"internalType":"string"}],"anonymous":false},{"type":"event","name":"AgentRemoved","inputs":[{"name":"agent","type":"address","indexed":true,"internalType":"address"}],"anonymous":false},{"type":"event","name":"FundsDeposited","inputs":[{"name":"from","type":"address","indexed":true,"internalType":"address"},{"name":"amount","type":"uint256","indexed":false,"internalType":"uint256"}],"anonymous":false},{"type":"event","name":"FundsWithdrawn","inputs":[{"name":"to","type":"address","indexed":true,"internalType":"address"},{"name":"amount","type":"uint256","indexed":false,"internalType":"uint256"}],"anonymous":false}],"bytecode":{"object":"0x608060405234801562000010575f80fd5b5060405162001709380380620017098339810160408190526200003391620000f2565b6001600160a01b038216158015906200005457506001600160a01b03811615155b620000a55760405162461bcd60e51b815260206004820152601860248201527f4167656e7453636f70653a207a65726f20616464726573730000000000000000604482015260640160405180910390fd5b5f80546001600160a01b039384166001600160a01b0319918216179091556001805492909316911617905562000128565b80516001600160a01b0381168114620000ed575f80fd5b919050565b5f806040838503121562000104575f80fd5b6200010f83620000d6565b91506200011f60208401620000d6565b90509250929050565b6115d380620001365f395ff3fe6080604052600436106100e7575f3560e01c806397a6278e11610087578063b63e6ac311610057578063b63e6ac314610329578063f2fde38b14610355578063f3fef3a314610374578063fac7236d14610393575f80fd5b806397a6278e146102b8578063a23a720f146102d7578063a85a8f16146102eb578063af7d6ca31461030a575f80fd5b80635b6b5314116100c25780635b6b5314146101e357806374ee82fc146102025780638989a9cc146102405780638da5cb5b14610282575f80fd5b80630f7ee1ec1461012757806322b833d81461019657806339f37fc1146101b7575f80fd5b366101235760405134815233907f543ba50a5eec5e6178218e364b1d0f396157b3c8fa278522c2cb7fd99407d4749060200160405180910390a2005b5f80fd5b348015610132575f80fd5b50610146610141366004611209565b6103b2565b604080516001600160a01b039889168152979096166020880152948601939093526001600160e01b03199091166060850152608084015260a0830152151560c082015260e0015b60405180910390f35b3480156101a1575f80fd5b506101b56101b0366004611280565b610414565b005b3480156101c2575f80fd5b506101d66101d13660046112cf565b6104f6565b60405161018d919061135a565b3480156101ee575f80fd5b506101b56101fd3660046113a7565b6106f9565b34801561020d575f80fd5b5061023061021c3660046113fd565b60026020525f908152604090205460ff1681565b604051901515815260200161018d565b34801561024b575f80fd5b5061027461025a3660046113fd565b6001600160a01b03165f9081526004602052604090205490565b60405190815260200161018d565b34801561028d575f80fd5b505f546102a0906001600160a01b031681565b6040516001600160a01b03909116815260200161018d565b3480156102c3575f80fd5b506101b56102d23660046113fd565b610a74565b3480156102e2575f80fd5b50600354610274565b3480156102f6575f80fd5b506001546102a0906001600160a01b031681565b348015610315575f80fd5b506101b561032436600461141d565b610ae5565b348015610334575f80fd5b50610348610343366004611209565b610d4b565b60405161018d9190611445565b348015610360575f80fd5b506101b561036f3660046113fd565b610e1a565b34801561037f575f80fd5b506101b561038e36600461141d565b610eb3565b34801561039e575f80fd5b506102746103ad36600461141d565b611006565b600381815481106103c1575f80fd5b5f91825260209091206007909102018054600182015460028301546003840154600485015460058601546006909601546001600160a01b0395861697509490931694919360e09190911b92919060ff1687565b5f546001600160a01b031633146104465760405162461bcd60e51b815260040161043d90611459565b60405180910390fd5b6001600160a01b0383166104955760405162461bcd60e51b81526020600482015260166024820152751059d95b9d14d8dbdc194e881e995c9bc81859d95b9d60521b604482015260640161043d565b6001600160a01b0383165f8181526002602052604090819020805460ff19166001179055517fda816ca2fc37b9eecec62ae8263008ec6be1afb38dc28bc9c7c51d7e348da9c2906104e99085908590611488565b60405180910390a2505050565b6001600160a01b0383165f90815260046020908152604080832080548251818502810185019093528083526060949383018282801561055257602002820191905f5260205f20905b81548152602001906001019080831161053e575b505050505090505f8151848661056891906114ca565b1161057c5761057784866114ca565b61057f565b81515b90505f61058c86836114dd565b67ffffffffffffffff8111156105a4576105a46114f0565b60405190808252806020026020018201604052801561060957816020015b6040805160e0810182525f8082526020808301829052928201819052606082018190526080820181905260a0820181905260c082015282525f199092019101816105c25790505b509050855b828110156106ee57600384828151811061062a5761062a611504565b60200260200101518154811061064257610642611504565b5f9182526020918290206040805160e0808201835260079490940290920180546001600160a01b03908116845260018201541694830194909452600284015490820152600383015490911b6001600160e01b031916606082015260048201546080820152600582015460a082015260069091015460ff16151560c0820152826106cb89846114dd565b815181106106db576106db611504565b602090810291909101015260010161060e565b509695505050505050565b335f9081526002602052604090205460ff1661074f5760405162461bcd60e51b81526020600482015260156024820152741059d95b9d14d8dbdc194e881b9bdd081859d95b9d605a1b604482015260640161043d565b5f600482101561075f575f610775565b61076c60045f8486611518565b6107759161153f565b60015460405163bc13c58360e01b81523360048201526001600160a01b0388811660248301526001600160e01b03198416604483015292935091169063bc13c58390606401602060405180830381865afa1580156107d5573d5f803e3d5ffd5b505050506040513d601f19601f820116820180604052508101906107f9919061156f565b6108515760405162461bcd60e51b815260206004820152602360248201527f4167656e7453636f70653a20696e746572616374206e6f7420617574686f72696044820152621e995960ea1b606482015260840161043d565b83156109655760015460405163186c1c2760e01b8152336004820152602481018690526001600160a01b039091169063186c1c27906044016020604051808303815f875af11580156108a5573d5f803e3d5ffd5b505050506040513d601f19601f820116820180604052508101906108c9919061156f565b6109155760405162461bcd60e51b815260206004820181905260248201527f4167656e7453636f70653a207370656e64206e6f7420617574686f72697a6564604482015260640161043d565b834710156109655760405162461bcd60e51b815260206004820181905260248201527f4167656e7453636f70653a20696e73756666696369656e742062616c616e6365604482015260640161043d565b5f856001600160a01b031685858560405161098192919061158e565b5f6040518083038185875af1925050503d805f81146109bb576040519150601f19603f3d011682016040523d82523d5f602084013e6109c0565b606091505b505090505f6109d23388888686611031565b6040805188815284151560208201529192506001600160a01b03891691339184917f74a15adad46dd1796d1f84ac18f72da1d1c222a4bdb15c142502cdd85f451e15910160405180910390a481610a6b5760405162461bcd60e51b815260206004820152601b60248201527f4167656e7453636f70653a20696e746572616374206661696c65640000000000604482015260640161043d565b50505050505050565b5f546001600160a01b03163314610a9d5760405162461bcd60e51b815260040161043d90611459565b6001600160a01b0381165f81815260026020526040808220805460ff19169055517fed9c8ad8d5a0a66898ea49d2956929c93ae2e8bd50281b2ed897c5d1a6737e0b9190a250565b335f9081526002602052604090205460ff16610b3b5760405162461bcd60e51b81526020600482015260156024820152741059d95b9d14d8dbdc194e881b9bdd081859d95b9d605a1b604482015260640161043d565b60015460405163186c1c2760e01b8152336004820152602481018390526001600160a01b039091169063186c1c27906044016020604051808303815f875af1158015610b89573d5f803e3d5ffd5b505050506040513d601f19601f82011682018060405250810190610bad919061156f565b610bf95760405162461bcd60e51b815260206004820181905260248201527f4167656e7453636f70653a207370656e64206e6f7420617574686f72697a6564604482015260640161043d565b80471015610c495760405162461bcd60e51b815260206004820181905260248201527f4167656e7453636f70653a20696e73756666696369656e742062616c616e6365604482015260640161043d565b5f826001600160a01b0316826040515f6040518083038185875af1925050503d805f8114610c92576040519150601f19603f3d011682016040523d82523d5f602084013e610c97565b606091505b505090505f610cac3385855f60e01b86611031565b6040805185815284151560208201529192506001600160a01b03861691339184917f74a15adad46dd1796d1f84ac18f72da1d1c222a4bdb15c142502cdd85f451e15910160405180910390a481610d455760405162461bcd60e51b815260206004820152601860248201527f4167656e7453636f70653a207370656e64206661696c65640000000000000000604482015260640161043d565b50505050565b6040805160e0810182525f80825260208201819052918101829052606081018290526080810182905260a0810182905260c081019190915260038281548110610d9657610d96611504565b5f9182526020918290206040805160e0808201835260079490940290920180546001600160a01b03908116845260018201541694830194909452600284015490820152600383015490911b6001600160e01b031916606082015260048201546080820152600582015460a082015260069091015460ff16151560c082015292915050565b5f546001600160a01b03163314610e435760405162461bcd60e51b815260040161043d90611459565b6001600160a01b038116610e925760405162461bcd60e51b815260206004820152601660248201527520b3b2b73a29b1b7b8329d103d32b9379037bbb732b960511b604482015260640161043d565b5f80546001600160a01b0319166001600160a01b0392909216919091179055565b5f546001600160a01b03163314610edc5760405162461bcd60e51b815260040161043d90611459565b80471015610f2c5760405162461bcd60e51b815260206004820152601860248201527f4167656e7453636f70653a20696e73756666696369656e740000000000000000604482015260640161043d565b5f826001600160a01b0316826040515f6040518083038185875af1925050503d805f8114610f75576040519150601f19603f3d011682016040523d82523d5f602084013e610f7a565b606091505b5050905080610fcb5760405162461bcd60e51b815260206004820152601b60248201527f4167656e7453636f70653a207769746864726177206661696c65640000000000604482015260640161043d565b826001600160a01b03167feaff4b37086828766ad3268786972c0cd24259d4c87a80f9d3963a3c3d999b0d836040516104e991815260200190565b6004602052815f5260405f20818154811061101f575f80fd5b905f5260205f20015f91509150505481565b600380546040805160e080820183526001600160a01b03808b168084528a821660208086019182528587018c81526001600160e01b03198c166060880190815242608089019081524360a08a019081528d151560c08b019081526001808e018f555f9e8f529a5160078e027fc2575a0e9e593c00f959f8c92f12db2869c3395a3b0502d05e2516446f71f85b81018054928c166001600160a01b031993841617905597517fc2575a0e9e593c00f959f8c92f12db2869c3395a3b0502d05e2516446f71f85c8901805491909b1691161790985592517fc2575a0e9e593c00f959f8c92f12db2869c3395a3b0502d05e2516446f71f85d86015590517fc2575a0e9e593c00f959f8c92f12db2869c3395a3b0502d05e2516446f71f85e850180549190981c63ffffffff199091161790965594517fc2575a0e9e593c00f959f8c92f12db2869c3395a3b0502d05e2516446f71f85f83015593517fc2575a0e9e593c00f959f8c92f12db2869c3395a3b0502d05e2516446f71f86082015591517fc2575a0e9e593c00f959f8c92f12db2869c3395a3b0502d05e2516446f71f861909201805492151560ff1990931692909217909155855260048152918420805491820181558452922090910181905595945050505050565b5f60208284031215611219575f80fd5b5035919050565b80356001600160a01b0381168114611236575f80fd5b919050565b5f8083601f84011261124b575f80fd5b50813567ffffffffffffffff811115611262575f80fd5b602083019150836020828501011115611279575f80fd5b9250929050565b5f805f60408486031215611292575f80fd5b61129b84611220565b9250602084013567ffffffffffffffff8111156112b6575f80fd5b6112c28682870161123b565b9497909650939450505050565b5f805f606084860312156112e1575f80fd5b6112ea84611220565b95602085013595506040909401359392505050565b80516001600160a01b03908116835260208083015190911690830152604080820151908301526060808201516001600160e01b031916908301526080808201519083015260a0818101519083015260c0908101511515910152565b602080825282518282018190525f9190848201906040850190845b8181101561139b576113888385516112ff565b9284019260e09290920191600101611375565b50909695505050505050565b5f805f80606085870312156113ba575f80fd5b6113c385611220565b935060208501359250604085013567ffffffffffffffff8111156113e5575f80fd5b6113f18782880161123b565b95989497509550505050565b5f6020828403121561140d575f80fd5b61141682611220565b9392505050565b5f806040838503121561142e575f80fd5b61143783611220565b946020939093013593505050565b60e0810161145382846112ff565b92915050565b60208082526015908201527420b3b2b73a29b1b7b8329d103737ba1037bbb732b960591b604082015260600190565b60208152816020820152818360408301375f818301604090810191909152601f909201601f19160101919050565b634e487b7160e01b5f52601160045260245ffd5b80820180821115611453576114536114b6565b81810381811115611453576114536114b6565b634e487b7160e01b5f52604160045260245ffd5b634e487b7160e01b5f52603260045260245ffd5b5f8085851115611526575f80fd5b83861115611532575f80fd5b5050820193919092039150565b6001600160e01b031981358181169160048510156115675780818660040360031b1b83161692505b505092915050565b5f6020828403121561157f575f80fd5b81518015158114611416575f80fd5b818382375f910190815291905056fea26469706673582212205ee341d92f50d8d1b9a5dfdaa1f51a72d6531101be1b10d3579a8f4524c4e68264736f6c63430008180033","linkReferences":{}},"methodIdentifiers":{"agentReceipts(address,uint256)":"fac7236d","getAgentReceiptCount(address)":"8989a9cc","getAgentReceipts(address,uint256,uint256)":"39f37fc1","getReceipt(uint256)":"b63e6ac3","interact(address,uint256,bytes)":"5b6b5314","owner()":"8da5cb5b","receipts(uint256)":"0f7ee1ec","registerAgent(address,string)":"22b833d8","registeredAgents(address)":"74ee82fc","removeAgent(address)":"97a6278e","scopeToken()":"a85a8f16","spend(address,uint256)":"af7d6ca3","totalReceipts()":"a23a720f","transferOwnership(address)":"f2fde38b","withdraw(address,uint256)":"f3fef3a3"},"id":19}