{"abi":[{"type":"constructor","inputs":[{"name":"_owner","type":"address","internalType":"address"}],"stateMutability":"nonpayable"},{"type":"function","name":"SCOPE_ATTEST","inputs":[],"outputs":[{"name":"","type":"uint256","internalType":"uint256"}],"stateMutability":"view"},{"type":"function","name":"SCOPE_DEAL","inputs":[],"outputs":[{"name":"","type":"uint256","internalType":"uint256"}],"stateMutability":"view"},{"type":"function","name":"SCOPE_INTERACT","inputs":[],"outputs":[{"name":"","type":"uint256","internalType":"uint256"}],"stateMutability":"view"},{"type":"function","name":"SCOPE_SPEND","inputs":[],"outputs":[{"name":"","type":"uint256","internalType":"uint256"}],"stateMutability":"view"},{"type":"function","name":"activeDeals","inputs":[{"name":"","type":"address","internalType":"address"}],"outputs":[{"name":"","type":"uint256","internalType":"uint256"}],"stateMutability":"view"},{"type":"function","name":"balanceOf","inputs":[{"name":"","type":"address","internalType":"address"},{"name":"","type":"uint256","internalType":"uint256"}],"outputs":[{"name":"","type":"uint256","internalType":"uint256"}],"stateMutability":"view"},{"type":"function","name":"dailySpent","inputs":[{"name":"","type":"address","internalType":"address"}],"outputs":[{"name":"","type":"uint256","internalType":"uint256"}],"stateMutability":"view"},{"type":"function","name":"dealScopes","inputs":[{"name":"","type":"address","internalType":"address"}],"outputs":[{"name":"maxEscrowAmount","type":"uint256","internalType":"uint256"},{"name":"maxDeals","type":"uint256","internalType":"uint256"},{"name":"validUntil","type":"uint40","internalType":"uint40"}],"stateMutability":"view"},{"type":"function","name":"decrementDeals","inputs":[{"name":"agent","type":"address","internalType":"address"}],"outputs":[],"stateMutability":"nonpayable"},{"type":"function","name":"getDealScope","inputs":[{"name":"agent","type":"address","internalType":"address"}],"outputs":[{"name":"","type":"tuple","internalType":"struct ScopeToken.DealScope","components":[{"name":"maxEscrowAmount","type":"uint256","internalType":"uint256"},{"name":"maxDeals","type":"uint256","internalType":"uint256"},{"name":"validUntil","type":"uint40","internalType":"uint40"}]}],"stateMutability":"view"},{"type":"function","name":"getRemainingDailyBudget","inputs":[{"name":"agent","type":"address","internalType":"address"}],"outputs":[{"name":"","type":"uint256","internalType":"uint256"}],"stateMutability":"view"},{"type":"function","name":"getSpendScope","inputs":[{"name":"agent","type":"address","internalType":"address"}],"outputs":[{"name":"","type":"tuple","internalType":"struct ScopeToken.SpendScope","components":[{"name":"maxPerTx","type":"uint256","internalType":"uint256"},{"name":"maxPerDay","type":"uint256","internalType":"uint256"},{"name":"validUntil","type":"uint40","internalType":"uint40"}]}],"stateMutability":"view"},{"type":"function","name":"grantAttestScope","inputs":[{"name":"agent","type":"address","internalType":"address"}],"outputs":[],"stateMutability":"nonpayable"},{"type":"function","name":"grantDealScope","inputs":[{"name":"agent","type":"address","internalType":"address"},{"name":"maxEscrowAmount","type":"uint256","internalType":"uint256"},{"name":"maxDeals","type":"uint256","internalType":"uint256"},{"name":"validUntil","type":"uint40","internalType":"uint40"}],"outputs":[],"stateMutability":"nonpayable"},{"type":"function","name":"grantInteractScope","inputs":[{"name":"agent","type":"address","internalType":"address"},{"name":"target","type":"address","internalType":"address"},{"name":"allowedSelector","type":"bytes4","internalType":"bytes4"},{"name":"validUntil","type":"uint40","internalType":"uint40"}],"outputs":[],"stateMutability":"nonpayable"},{"type":"function","name":"grantSpendScope","inputs":[{"name":"agent","type":"address","internalType":"address"},{"name":"maxPerTx","type":"uint256","internalType":"uint256"},{"name":"maxPerDay","type":"uint256","internalType":"uint256"},{"name":"validUntil","type":"uint40","internalType":"uint40"}],"outputs":[],"stateMutability":"nonpayable"},{"type":"function","name":"hasScope","inputs":[{"name":"agent","type":"address","internalType":"address"},{"name":"scopeId","type":"uint256","internalType":"uint256"}],"outputs":[{"name":"","type":"bool","internalType":"bool"}],"stateMutability":"view"},{"type":"function","name":"incrementDeals","inputs":[{"name":"agent","type":"address","internalType":"address"}],"outputs":[],"stateMutability":"nonpayable"},{"type":"function","name":"interactScopes","inputs":[{"name":"","type":"address","internalType":"address"},{"name":"","type":"uint256","internalType":"uint256"}],"outputs":[{"name":"target","type":"address","internalType":"address"},{"name":"allowedSelector","type":"bytes4","internalType":"bytes4"},{"name":"validUntil","type":"uint40","internalType":"uint40"}],"stateMutability":"view"},{"type":"function","name":"lastResetDay","inputs":[{"name":"","type":"address","internalType":"address"}],"outputs":[{"name":"","type":"uint256","internalType":"uint256"}],"stateMutability":"view"},{"type":"function","name":"owner","inputs":[],"outputs":[{"name":"","type":"address","internalType":"address"}],"stateMutability":"view"},{"type":"function","name":"revokeAll","inputs":[{"name":"agent","type":"address","internalType":"address"}],"outputs":[],"stateMutability":"nonpayable"},{"type":"function","name":"revokeScope","inputs":[{"name":"agent","type":"address","internalType":"address"},{"name":"scopeId","type":"uint256","internalType":"uint256"}],"outputs":[],"stateMutability":"nonpayable"},{"type":"function","name":"spendScopes","inputs":[{"name":"","type":"address","internalType":"address"}],"outputs":[{"name":"maxPerTx","type":"uint256","internalType":"uint256"},{"name":"maxPerDay","type":"uint256","internalType":"uint256"},{"name":"validUntil","type":"uint40","internalType":"uint40"}],"stateMutability":"view"},{"type":"function","name":"validateDeal","inputs":[{"name":"agent","type":"address","internalType":"address"},{"name":"escrowAmount","type":"uint256","internalType":"uint256"}],"outputs":[{"name":"","type":"bool","internalType":"bool"}],"stateMutability":"view"},{"type":"function","name":"validateInteract","inputs":[{"name":"agent","type":"address","internalType":"address"},{"name":"target","type":"address","internalType":"address"},{"name":"selector","type":"bytes4","internalType":"bytes4"}],"outputs":[{"name":"","type":"bool","internalType":"bool"}],"stateMutability":"view"},{"type":"function","name":"validateSpend","inputs":[{"name":"agent","type":"address","internalType":"address"},{"name":"value","type":"uint256","internalType":"uint256"}],"outputs":[{"name":"","type":"bool","internalType":"bool"}],"stateMutability":"nonpayable"},{"type":"event","name":"ScopeGranted","inputs":[{"name":"agent","type":"address","indexed":true,"internalType":"address"},{"name":"scopeId","type":"uint256","indexed":true,"internalType":"uint256"}],"anonymous":false},{"type":"event","name":"ScopeRevoked","inputs":[{"name":"agent","type":"address","indexed":true,"internalType":"address"},{"name":"scopeId","type":"uint256","indexed":true,"internalType":"uint256"}],"anonymous":false},{"type":"event","name":"TransferSingle","inputs":[{"name":"operator","type":"address","indexed":true,"internalType":"address"},{"name":"from","type":"address","indexed":true,"internalType":"address"},{"name":"to","type":"address","indexed":true,"internalType":"address"},{"name":"id","type":"uint256","indexed":false,"internalType":"uint256"},{"name":"value","type":"uint256","indexed":false,"internalType":"uint256"}],"anonymous":false}],"bytecode":{"object":"0x608060405234801561000f575f80fd5b5060405161148e38038061148e83398101604081905261002e916100ac565b6001600160a01b0381166100885760405162461bcd60e51b815260206004820152601660248201527f53636f7065546f6b656e3a207a65726f206f776e657200000000000000000000604482015260640160405180910390fd5b5f80546001600160a01b0319166001600160a01b03929092169190911790556100d9565b5f602082840312156100bc575f80fd5b81516001600160a01b03811681146100d2575f80fd5b9392505050565b6113a8806100e65f395ff3fe608060405234801561000f575f80fd5b50600436106101a0575f3560e01c806395f8ecef116100f3578063bc13c58311610093578063ec71d3361161006e578063ec71d33614610463578063ec8e6d8714610476578063fccab95514610489578063ffc8ada61461049c575f80fd5b8063bc13c5831461042a578063da0ecd201461043d578063e7dd4b2c14610450575f80fd5b8063b214cf38116100ce578063b214cf381461037b578063b63dcc02146103b0578063b748d06e146103c3578063b9390d431461040b575f80fd5b806395f8ecef146102ff578063a4303f7e14610312578063b0407ee114610325575f80fd5b80633e4398541161015e578063826cf1c011610139578063826cf1c0146102835780638662e4181461028b5780638da5cb5b1461029e578063913f5fea146102c8575f80fd5b80633e439854146102535780635a47007014610268578063728cb6741461027b575f80fd5b8062fdd58e146101a457806301ac0554146101e1578063186c1c27146101e957806333b9baa51461020c578063389a9b661461022b5780633ae490ca14610233575b5f80fd5b6101ce6101b236600461110c565b600160209081525f928352604080842090915290825290205481565b6040519081526020015b60405180910390f35b6101ce600481565b6101fc6101f736600461110c565b6104bb565b60405190151581526020016101d8565b6101ce61021a366004611134565b60066020525f908152604090205481565b6101ce600181565b610246610241366004611134565b610633565b6040516101d8919061114d565b61026661026136600461110c565b6106a3565b005b6101fc61027636600461110c565b610761565b6101ce600381565b6101ce600281565b610266610299366004611134565b610846565b5f546102b0906001600160a01b031681565b6040516001600160a01b0390911681526020016101d8565b6101fc6102d636600461110c565b6001600160a01b03919091165f9081526001602090815260408083209383529290522054151590565b61026661030d366004611189565b610871565b610266610320366004611134565b610965565b610359610333366004611134565b600260208190525f918252604090912080546001820154919092015464ffffffffff1683565b60408051938452602084019290925264ffffffffff16908201526060016101d8565b610359610389366004611134565b60046020525f908152604090208054600182015460029092015490919064ffffffffff1683565b6101ce6103be366004611134565b610a0f565b6103d66103d136600461110c565b610ace565b604080516001600160a01b0390941684526001600160e01b0319909216602084015264ffffffffff16908201526060016101d8565b6101ce610419366004611134565b60076020525f908152604090205481565b6101fc6104383660046111e3565b610b1b565b61026661044b366004611189565b610d12565b61026661045e366004611134565b610e0a565b610266610471366004611223565b610f05565b610266610484366004611134565b61103e565b610246610497366004611134565b611081565b6101ce6104aa366004611134565b60056020525f908152604090205481565b6001600160a01b0382165f90815260016020818152604080842092845291905281205481036104eb57505f61062d565b6001600160a01b0383165f908152600260208181526040928390208351606081018552815481526001820154928101929092529091015464ffffffffff1691810182905290158015906105485750806040015164ffffffffff1642115b15610556575f91505061062d565b8051831115610568575f91505061062d565b5f610576620151804261127d565b6001600160a01b0386165f908152600660205260409020549091508111156105c0576001600160a01b0385165f908152600560209081526040808320839055600690915290208190555b6020808301516001600160a01b0387165f90815260059092526040909120546105ea90869061129c565b11156105fa575f9250505061062d565b6001600160a01b0385165f908152600560205260408120805486929061062190849061129c565b90915550600193505050505b92915050565b61065b60405180606001604052805f81526020015f81526020015f64ffffffffff1681525090565b506001600160a01b03165f908152600260208181526040928390208351606081018552815481526001820154928101929092529091015464ffffffffff169181019190915290565b5f546001600160a01b031633146106d55760405162461bcd60e51b81526004016106cc906112af565b60405180910390fd5b6001600160a01b038281165f81815260016020818152604080842087855282528084208490558354815188815292830193909352929491909116915f80516020611333833981519152910160405180910390a460405181906001600160a01b038416907fac1531b12982b4fc4bb99e71cdceabb26d16af516fb4a9ab1fe4a81e68a6296d905f90a35050565b6001600160a01b0382165f90815260016020908152604080832060038452909152812054810361079257505f61062d565b6001600160a01b0383165f908152600460209081526040918290208251606081018452815481526001820154928101929092526002015464ffffffffff1691810182905290158015906107ef5750806040015164ffffffffff1642115b156107fd575f91505061062d565b805183111561080f575f91505061062d565b6020808201516001600160a01b0386165f90815260079092526040909120541061083c575f91505061062d565b5060019392505050565b6001600160a01b0381165f908152600760205260408120805491610869836112de565b919050555050565b5f546001600160a01b0316331461089a5760405162461bcd60e51b81526004016106cc906112af565b60408051606081018252848152602080820185815264ffffffffff8581168486019081526001600160a01b038a81165f81815260028088528982209851895595516001808a0191909155935197909501805464ffffffffff19169790941696909617909255808452858320818452845285832081905582548651828152948501919091529394919316915f80516020611333833981519152910160405180910390a46040516001906001600160a01b038616905f80516020611353833981519152905f90a350505050565b5f546001600160a01b0316331461098e5760405162461bcd60e51b81526004016106cc906112af565b6001600160a01b038082165f8181526001602081815260408084206004808652925280842083905583549051949593949316925f80516020611333833981519152926109e1928252602082015260400190565b60405180910390a46040516004906001600160a01b038316905f80516020611353833981519152905f90a350565b6001600160a01b0381165f9081526002602081815260408084208151606081018352815481526001820154938101939093529092015464ffffffffff169181019190915281610a61620151804261127d565b6001600160a01b0385165f90815260066020526040812054919250908211610aa0576001600160a01b0385165f90815260056020526040902054610aa2565b5f5b905080836020015111610ab5575f610ac5565b808360200151610ac591906112f6565b95945050505050565b6003602052815f5260405f208181548110610ae7575f80fd5b5f918252602090912001546001600160a01b0381169250600160a01b810460e01b9150600160c01b900464ffffffffff1683565b6001600160a01b0383165f908152600160209081526040808320600284529091528120548103610b4c57505f610d0b565b6001600160a01b0384165f90815260036020908152604080832080548251818502810185019093528083529192909190849084015b82821015610be5575f84815260209081902060408051606081018252918501546001600160a01b0381168352600160a01b810460e01b6001600160e01b03191683850152600160c01b900464ffffffffff1690820152825260019092019101610b81565b5050505090505f5b8151811015610d0557846001600160a01b0316828281518110610c1257610c12611309565b60200260200101515f01516001600160a01b031603610cfd575f828281518110610c3e57610c3e611309565b60200260200101516040015164ffffffffff16118015610c815750818181518110610c6b57610c6b611309565b60200260200101516040015164ffffffffff1642115b610cfd5781515f90839083908110610c9b57610c9b611309565b6020026020010151602001516001600160e01b0319161480610ced5750836001600160e01b031916828281518110610cd557610cd5611309565b6020026020010151602001516001600160e01b031916145b15610cfd57600192505050610d0b565b600101610bed565b505f9150505b9392505050565b5f546001600160a01b03163314610d3b5760405162461bcd60e51b81526004016106cc906112af565b60408051606081018252848152602080820185815264ffffffffff8581168486019081526001600160a01b038a81165f8181526004875288812097518855945160018089019190915592516002909701805464ffffffffff1916979094169690961790925580845285832060038085529085528684208290558354875191825294810191909152939491939216915f80516020611333833981519152910160405180910390a46040516003906001600160a01b038616905f80516020611353833981519152905f90a350505050565b5f546001600160a01b03163314610e335760405162461bcd60e51b81526004016106cc906112af565b60015b60048111610f01576001600160a01b0382165f90815260016020908152604080832084845290915290205415610eef576001600160a01b038281165f81815260016020818152604080842087855282528084208490558354815188815292830193909352929491909116915f80516020611333833981519152910160405180910390a460405181906001600160a01b038416907fac1531b12982b4fc4bb99e71cdceabb26d16af516fb4a9ab1fe4a81e68a6296d905f90a35b80610ef9816112de565b915050610e36565b5050565b5f546001600160a01b03163314610f2e5760405162461bcd60e51b81526004016106cc906112af565b6001600160a01b038481165f818152600360209081526040808320815160608101835289871681526001600160e01b0319891681850190815264ffffffffff89811683860190815284546001808201875595895287892094519401805493519151909216600160c01b0264ffffffffff60c01b1960e09290921c600160a01b026001600160c01b0319909416948b16949094179290921791909116919091179055848452808352818420600280865290845282852082905584548351918252938101919091529394929391909216915f80516020611333833981519152910160405180910390a46040516002906001600160a01b038616905f80516020611353833981519152905f90a350505050565b6001600160a01b0381165f908152600760205260409020541561107e576001600160a01b0381165f9081526007602052604081208054916108698361131d565b50565b6110a960405180606001604052805f81526020015f81526020015f64ffffffffff1681525090565b506001600160a01b03165f908152600460209081526040918290208251606081018452815481526001820154928101929092526002015464ffffffffff169181019190915290565b80356001600160a01b0381168114611107575f80fd5b919050565b5f806040838503121561111d575f80fd5b611126836110f1565b946020939093013593505050565b5f60208284031215611144575f80fd5b610d0b826110f1565b815181526020808301519082015260408083015164ffffffffff16908201526060810161062d565b803564ffffffffff81168114611107575f80fd5b5f805f806080858703121561119c575f80fd5b6111a5856110f1565b935060208501359250604085013591506111c160608601611175565b905092959194509250565b80356001600160e01b031981168114611107575f80fd5b5f805f606084860312156111f5575f80fd5b6111fe846110f1565b925061120c602085016110f1565b915061121a604085016111cc565b90509250925092565b5f805f8060808587031215611236575f80fd5b61123f856110f1565b935061124d602086016110f1565b925061125b604086016111cc565b91506111c160608601611175565b634e487b7160e01b5f52601160045260245ffd5b5f8261129757634e487b7160e01b5f52601260045260245ffd5b500490565b8082018082111561062d5761062d611269565b60208082526015908201527429b1b7b832aa37b5b2b71d103737ba1037bbb732b960591b604082015260600190565b5f600182016112ef576112ef611269565b5060010190565b8181038181111561062d5761062d611269565b634e487b7160e01b5f52603260045260245ffd5b5f8161132b5761132b611269565b505f19019056fec3d58168c5ae7397731d063d5bbf3d657854427343f4c083240f7aacaa2d0f623a0eb1a3dd5cdfb258c4e91281ed827af895140f5fa88f3332482030d32d0a18a2646970667358221220081f162f60c741d5ee560a70e9db9acb4cbe6faa27bc3cf22c43c190e13b750f64736f6c63430008180033","linkReferences":{}},"methodIdentifiers":{"SCOPE_ATTEST()":"01ac0554","SCOPE_DEAL()":"728cb674","SCOPE_INTERACT()":"826cf1c0","SCOPE_SPEND()":"389a9b66","activeDeals(address)":"b9390d43","balanceOf(address,uint256)":"00fdd58e","dailySpent(address)":"ffc8ada6","dealScopes(address)":"b214cf38","decrementDeals(address)":"ec8e6d87","getDealScope(address)":"fccab955","getRemainingDailyBudget(address)":"b63dcc02","getSpendScope(address)":"3ae490ca","grantAttestScope(address)":"a4303f7e","grantDealScope(address,uint256,uint256,uint40)":"da0ecd20","grantInteractScope(address,address,bytes4,uint40)":"ec71d336","grantSpendScope(address,uint256,uint256,uint40)":"95f8ecef","hasScope(address,uint256)":"913f5fea","incrementDeals(address)":"8662e418","interactScopes(address,uint256)":"b748d06e","lastResetDay(address)":"33b9baa5","owner()":"8da5cb5b","revokeAll(address)":"e7dd4b2c","revokeScope(address,uint256)":"3e439854","spendScopes(address)":"b0407ee1","validateDeal(address,uint256)":"5a470070","validateInteract(address,address,bytes4)":"bc13c583","validateSpend(address,uint256)":"186c1c27"},"id":21}