{"abi":[{"type":"constructor","inputs":[{"name":"_owner","type":"address","internalType":"address"},{"name":"_scopeToken","type":"address","internalType":"address"}],"stateMutability":"nonpayable"},{"type":"function","name":"attest","inputs":[{"name":"subject","type":"address","internalType":"address"},{"name":"outcome","type":"uint8","internalType":"enum TrustAnchor.Outcome"},{"name":"evidenceHash","type":"bytes32","internalType":"bytes32"}],"outputs":[],"stateMutability":"nonpayable"},{"type":"function","name":"attestations","inputs":[{"name":"","type":"uint256","internalType":"uint256"}],"outputs":[{"name":"attester","type":"address","internalType":"address"},{"name":"subject","type":"address","internalType":"address"},{"name":"outcome","type":"uint8","internalType":"enum TrustAnchor.Outcome"},{"name":"evidenceHash","type":"bytes32","internalType":"bytes32"},{"name":"timestamp","type":"uint256","internalType":"uint256"}],"stateMutability":"view"},{"type":"function","name":"getAttestationCount","inputs":[],"outputs":[{"name":"","type":"uint256","internalType":"uint256"}],"stateMutability":"view"},{"type":"function","name":"getProfile","inputs":[{"name":"subject","type":"address","internalType":"address"}],"outputs":[{"name":"","type":"tuple","internalType":"struct TrustAnchor.Profile","components":[{"name":"positive","type":"uint256","internalType":"uint256"},{"name":"negative","type":"uint256","internalType":"uint256"},{"name":"total","type":"uint256","internalType":"uint256"},{"name":"erc8004Verified","type":"bool","internalType":"bool"}]}],"stateMutability":"view"},{"type":"function","name":"getSubjectAttestations","inputs":[{"name":"subject","type":"address","internalType":"address"}],"outputs":[{"name":"","type":"uint256[]","internalType":"uint256[]"}],"stateMutability":"view"},{"type":"function","name":"isTrusted","inputs":[{"name":"subject","type":"address","internalType":"address"},{"name":"minScore","type":"uint256","internalType":"uint256"}],"outputs":[{"name":"","type":"bool","internalType":"bool"}],"stateMutability":"view"},{"type":"function","name":"owner","inputs":[],"outputs":[{"name":"","type":"address","internalType":"address"}],"stateMutability":"view"},{"type":"function","name":"profiles","inputs":[{"name":"","type":"address","internalType":"address"}],"outputs":[{"name":"positive","type":"uint256","internalType":"uint256"},{"name":"negative","type":"uint256","internalType":"uint256"},{"name":"total","type":"uint256","internalType":"uint256"},{"name":"erc8004Verified","type":"bool","internalType":"bool"}],"stateMutability":"view"},{"type":"function","name":"scopeToken","inputs":[],"outputs":[{"name":"","type":"address","internalType":"contract ScopeToken"}],"stateMutability":"view"},{"type":"function","name":"subjectAttestations","inputs":[{"name":"","type":"address","internalType":"address"},{"name":"","type":"uint256","internalType":"uint256"}],"outputs":[{"name":"","type":"uint256","internalType":"uint256"}],"stateMutability":"view"},{"type":"function","name":"trustScore","inputs":[{"name":"subject","type":"address","internalType":"address"}],"outputs":[{"name":"","type":"uint256","internalType":"uint256"}],"stateMutability":"view"},{"type":"function","name":"verifyERC8004","inputs":[{"name":"subject","type":"address","internalType":"address"}],"outputs":[],"stateMutability":"nonpayable"},{"type":"event","name":"AttestationCreated","inputs":[{"name":"id","type":"uint256","indexed":true,"internalType":"uint256"},{"name":"attester","type":"address","indexed":true,"internalType":"address"},{"name":"subject","type":"address","indexed":true,"internalType":"address"},{"name":"outcome","type":"uint8","indexed":false,"internalType":"enum TrustAnchor.Outcome"}],"anonymous":false},{"type":"event","name":"ERC8004Verified","inputs":[{"name":"subject","type":"address","indexed":true,"internalType":"address"}],"anonymous":false}],"bytecode":{"object":"0x608060405234801561000f575f80fd5b50604051610a7f380380610a7f83398101604081905261002e91610079565b5f80546001600160a01b039384166001600160a01b031991821617909155600180549290931691161790556100aa565b80516001600160a01b0381168114610074575f80fd5b919050565b5f806040838503121561008a575f80fd5b6100938361005e565b91506100a16020840161005e565b90509250929050565b6109c8806100b75f395ff3fe608060405234801561000f575f80fd5b50600436106100b1575f3560e01c80638da5cb5b1161006e5780638da5cb5b146101935780638ea43718146101bd578063962ea8ae146101e0578063a85a8f16146101e8578063bbe15627146101fb578063eb99552b14610256575f80fd5b806301daf26b146100b55780630f53a470146100e25780634cc6d2cd1461012a578063534a84651461013f5780636521637f146101605780636dae6eed14610180575b5f80fd5b6100c86100c3366004610788565b610269565b6040516100d99594939291906107d3565b60405180910390f35b6100f56100f0366004610826565b6102b9565b6040516100d9919081518152602080830151908201526040808301519082015260609182015115159181019190915260800190565b61013d610138366004610826565b610331565b005b61015261014d366004610826565b6103d5565b6040519081526020016100d9565b61017361016e366004610826565b610480565b6040516100d99190610846565b61013d61018e366004610889565b6104e9565b5f546101a5906001600160a01b031681565b6040516001600160a01b0390911681526020016100d9565b6101d06101cb3660046108c8565b610747565b60405190151581526020016100d9565b600354610152565b6001546101a5906001600160a01b031681565b610234610209366004610826565b600260208190525f918252604090912080546001820154928201546003909201549092919060ff1684565b60408051948552602085019390935291830152151560608201526080016100d9565b6101526102643660046108c8565b61075d565b60038181548110610278575f80fd5b5f91825260209091206004909102018054600182015460028301546003909301546001600160a01b03928316945091811692600160a01b90910460ff169185565b6102e260405180608001604052805f81526020015f81526020015f81526020015f151581525090565b506001600160a01b03165f9081526002602081815260409283902083516080810185528154815260018201549281019290925291820154928101929092526003015460ff161515606082015290565b5f546001600160a01b031633146103875760405162461bcd60e51b81526020600482015260166024820152752a393ab9ba20b731b437b91d103737ba1037bbb732b960511b604482015260640160405180910390fd5b6001600160a01b0381165f81815260026020526040808220600301805460ff19166001179055517f8ffc692322bf1a8e27e9e839e8807ce8a848b7c900f6a089228844020609d90f9190a250565b6001600160a01b0381165f908152600260208181526040808420815160808101835281548152600182015493810193909352928301549082015260039091015460ff161580156060830152829061043457610431601e82610904565b90505b6040820151156104675760408201518251610450906046610917565b61045a919061092e565b6104649082610904565b90505b606481116104755780610478565b60645b949350505050565b6001600160a01b0381165f908152600460209081526040918290208054835181840281018401909452808452606093928301828280156104dd57602002820191905f5260205f20905b8154815260200190600101908083116104c9575b50505050509050919050565b6001546001600160a01b031615801590610571575060015460405163489faff560e11b81523360048083019190915260248201526001600160a01b039091169063913f5fea90604401602060405180830381865afa15801561054d573d5f803e3d5ffd5b505050506040513d601f19601f82011682018060405250810190610571919061094d565b506001600160a01b0383165f9081526002602052604081209083600281111561059c5761059c61079f565b036105b8578054815f6105ae8361096c565b91905055506105e8565b60028360028111156105cc576105cc61079f565b036105e857600181018054905f6105e28361096c565b91905055505b600281018054905f6105f98361096c565b9091555050600380546040805160a0810182523381526001600160a01b03881660208201529192919081018660028111156106365761063661079f565b81526020808201879052426040928301528354600180820186555f95865294829020845160049092020180546001600160a01b03199081166001600160a01b0393841617825592850151958101805493841696909216958617825592840151939492939290916001600160a81b03191617600160a01b8360028111156106be576106be61079f565b0217905550606082015160028201556080909101516003909101556001600160a01b0385165f8181526004602090815260408083208054600181018255908452919092200183905551339083907fb931f7563a0ed9e78683c89440a79ee9b56d0ef5e4784fc255513268a3d9f38590610738908990610984565b60405180910390a45050505050565b5f81610752846103d5565b101590505b92915050565b6004602052815f5260405f208181548110610776575f80fd5b905f5260205f20015f91509150505481565b5f60208284031215610798575f80fd5b5035919050565b634e487b7160e01b5f52602160045260245ffd5b600381106107cf57634e487b7160e01b5f52602160045260245ffd5b9052565b6001600160a01b0386811682528516602082015260a081016107f860408301866107b3565b6060820193909352608001529392505050565b80356001600160a01b0381168114610821575f80fd5b919050565b5f60208284031215610836575f80fd5b61083f8261080b565b9392505050565b602080825282518282018190525f9190848201906040850190845b8181101561087d57835183529284019291840191600101610861565b50909695505050505050565b5f805f6060848603121561089b575f80fd5b6108a48461080b565b92506020840135600381106108b7575f80fd5b929592945050506040919091013590565b5f80604083850312156108d9575f80fd5b6108e28361080b565b946020939093013593505050565b634e487b7160e01b5f52601160045260245ffd5b80820180821115610757576107576108f0565b8082028115828204841417610757576107576108f0565b5f8261094857634e487b7160e01b5f52601260045260245ffd5b500490565b5f6020828403121561095d575f80fd5b8151801515811461083f575f80fd5b5f6001820161097d5761097d6108f0565b5060010190565b6020810161075782846107b356fea26469706673582212201f71c01e13977268127de3401ffbd39cbedeb471bc6a32d2d3577f65dcd1382364736f6c63430008180033","linkReferences":{}},"methodIdentifiers":{"attest(address,uint8,bytes32)":"6dae6eed","attestations(uint256)":"01daf26b","getAttestationCount()":"962ea8ae","getProfile(address)":"0f53a470","getSubjectAttestations(address)":"6521637f","isTrusted(address,uint256)":"8ea43718","owner()":"8da5cb5b","profiles(address)":"bbe15627","scopeToken()":"a85a8f16","subjectAttestations(address,uint256)":"eb99552b","trustScore(address)":"534a8465","verifyERC8004(address)":"4cc6d2cd"},"id":22}